:020000040000FA
:060000000A128A110E280D
:10000800FE00030EF6000408F7000A08F8000A12BA
:100018008A11E0280A128A111128F901FA01FB0154
:10002800FC01FD0183120313A00183010A128A1146
:100038008929F2001330720203182328242829285A
:100048000230F0007008F100DE2813307202031C41
:100058002E282F283A2828307202031834283528E9
:100068003A280330F0007008F100DE2828307202C8
:10007800031C3F2840284B283D30720203184528AE
:1000880046284B280530F0007008F100DE283D3086
:100098007202031C502851285C285230720203183F
:1000A800562857285C280630F0007008F100DE2832
:1000B80052307202031C612862286D286730720270
:1000C8000318672868286D280730F0007008F100C9
:1000D800DE2867307202031C722873287E2883305A
:1000E80072020318782879287E280830F0007008F2
:1000F800F100DE2883307202031C832884288F28AD
:1001080098307202031889288A288F280930F0004D
:100118007008F100DE2898307202031C9428952894
:10012800A028AD30720203189A289B28A0280A300C
:10013800F0007008F100DE28AD307202031CA5281B
:10014800A628B128C23072020318AB28AC28B128FF
:100158000B30F0007008F100DE28C2307202031C78
:10016800B628B728C228D73072020318BC28BD2881
:10017800C2280C30F0007008F100DE28D730720277
:10018800031CC728C828D328EC3072020318CD28CE
:10019800CE28D3280E30F0007008F100DE28ED30AC
:1001A8007202031CD828D928DE280F30F000700806
:1001B800F100DE2871080800831203130C1FE528DC
:1001C800E628442923291E08F3000310730C7C3EFB
:1001D80095001F08C33928389F003C291E08F300E2
:1001E8000310730C7C3E9B001F08C33920389F0006
:1001F8003C291E08F3000310730C0A128A111D20F3
:100208000A128A11F4007408FD00831203131F08F0
:10021800C33924389F003C291E08F3000310730CCF
:100228000A128A111D200A128A11F4007408FC00AF
:10023800831203131F08C33930389F003C291F0C51
:10024800F300730C0F39F400F5017508003A03192F
:100258002E293C297408083A0319FD28013A031984
:100268001029033A0319F228063A0319E7283C290A
:100278002130F300F30B3E29831203130C139F1450
:100288000B1D472948296F29EA3081007B087D0624
:10029800031D4F29502953290810F901FB017A0839
:1002A8007C06031D582959295C298810A001FA01E8
:1002B8007903031D6029612965290130F30073085A
:1002C800FB072003031D69296A296E290130F30001
:1002D8007308FA070B110C1C722973298029C03086
:1002E8008E0063308F007D088600F901F90AA001AD
:1002F800A00A081488140C1078088A00770884006B
:10030800760E8300FE0E7E0E0900703083160313EE
:100318008F040F14FF308316031789008801831692
:1003280003138501FF308600870188018901831244
:10033800031385018601870188018901FB01FA0100
:10034800FD01FC011F083F3980389F001F118316EB
:1003580003139F121F129F13831203131F142030BD
:1003680083120313A100A10BB729000083160313FE
:100378000715FA3092003F308312031397051708C8
:10038800F0390C3897000F309500CF309705831659
:1003980003138714831203131D08F0390C389D00CA
:1003A8000F309B009D128316031381128111F830C0
:1003B8008105EA308312031381000B11C0308E00CF
:1003C80063308F00CF309005901010140C108C10F3
:1003D8000330920412158C1CF229F329EF298C1092
:1003E80083160313071187108B160C14831203133B
:1003F8000C13831603130C170B178B178312031395
:0A0408009F14052A0A128A110E281B
:04400E00D420FF3F7C
:00000001FF
